:100000000C9434000C9451000C9451000C94510049
:100010000C9451000C9451000C9451000C9451001C
:100020000C9451000C9451000C9451000C9451000C
:100030000C9451000C9451000C9451000C945100FC
:100040000C9451000C9451000C94AD010C9451008F
:100050000C9451000C9451000C9451000C945100DC
:100060000C9451000C94510011241FBECFEFD8E026
:10007000DEBFCDBF11E0A0E0B1E0EAE1F5E002C0F3
:1000800005900D92AC34B107D9F721E0ACE4B1E0B2
:1000900001C01D92AB35B207E1F70E945B020C94E0
:1000A0008B020C94000090ED980F9A3048F08F7DF1
:1000B000815491E0863008F090E0892F90E0089517
:1000C00081E0FCCF813610F087550895813410F01F
:1000D0008753089580530895F999FECF92BD81BD4D
:1000E000F89A80B508958F929F92AF92BF92DF9257
:1000F000EF92FF920F931F93CF93DF937C0100E069
:1001000010E0F701E00FF11F80818032A1F4E801D7
:10011000A12CB12C4501209789F4B401C501DF91D0
:10012000CF911F910F91FF90EF90DF90BF90AF9014
:100130009F908F9008950F5F1F4FE3CFD02EDC1A52
:100140002197F701EC0FFD1F80810E94620090E073
:1001500044E0D49E9001112402C0880F991F2A9573
:10016000E2F7092E000C0008880E991EA01CB01C96
:10017000D2CF0F931F93CF93DF9300D00F92CDB7C1
:10018000DEB78C011A821B82EA81FB81E00FF11F2E
:1001900020818A819B810196203219F5800F911F61
:1001A000FC0180810E94620089838A819B81029682
:1001B000800F911FFC0180810E9462002981F0E183
:1001C0002F9FB0011124680F711D872F880F880B96
:1001D000982F0F900F900F90DF91CF911F910F915B
:1001E00008958A839B83D0CFCF93DF93D091C600AD
:1001F000C0915A018FEF8C0FC11103C0DB3141F464
:1002000082E080935A0180E090E0DF91CF910895E1
:10021000DF37C9F3DD3009F08EC00E944C028091B7
:1002200053010E945300892B09F470C0809154013E
:100230008032C9F4809155010E945300892B09F442
:1002400065C0809156010E945300892B09F45EC05D
:100250008091570181115AC0C0915801C11169C0E4
:10026000809159011AC0809154010E945300892B3A
:1002700009F44CC080915501803229F580915601D6
:100280000E945300892B09F441C0809157010E94BC
:100290005300892BD9F180915801811137C083E532
:1002A00091E00E94730060934E0170934F01809320
:1002B00050019093510183E591E00E94B900609351
:1002C0004D01C1E023C0809155010E945300892B4C
:1002D000E9F080915301813341F0809153018233E1
:1002E00021F080915301833389F48091560180324B
:1002F00069F4809157010E945300892B39F0809155
:1003000058010E945300892B09F0AACF1092530183
:1003100010925401109255011092560110925701FB
:100320001092580110925901109252018C2F90E0B6
:100330006CCFC0E0EBCF809152018630B8F78D2FA3
:100340000E94EC0180915201E82FF0E0ED5AFE4F3F
:10035000D0838F5F80935201E9CF1F920F920FB627
:100360000F9211242F933F934F935F936F937F933B
:100370008F939F93AF93BF93EF93FF930E94F400EB
:10038000892BA1F082E080934C01FF91EF91BF9106
:10039000AF919F918F917F916F915F914F913F911D
:1003A0002F910F900FBE0F901F90189510924C0137
:1003B000ECCF1092C50088E08093C40088E1809360
:1003C000C10086E08093C20008958091C00087FF3D
:1003D000FCCF8091C60008959091C00095FFFCCF9E
:1003E0008093C6000895CF93DF93EC01888181113B
:1003F00003C0DF91CF91089521960E94EC01F6CFC2
:10040000CF93C82FE82FE295EF70F0E0E05FFE4F4A
:1004100080810E94EC01CF70EC2FF0E0E05FFE4F96
:100420008081CF910C94EC01CF93DF9300D000D06A
:1004300000D0CDB7DEB769837A838B839C8380E35A
:100440000E94EC0188E70E94EC018CE18D831E8202
:1004500089819A81AB81BC810D8004C0B695A79536
:10046000979587950A94D2F78F70992780509F4F60
:10047000FC0180810E94EC018D819E8104978D8317
:100480009E83049629F70F900F900F900F900F9076
:100490000F90DF91CF9108958DE00E94EC018AE0EA
:1004A0000C94EC0188E00E94EC0180E20E94EC01D7
:1004B00088E00C94EC010E94D90180E88FBF809104
:1004C000C10080688093C100C3E080914C01811518
:1004D000E1F380914C018230A1F480914E01909122
:1004E0004F01A0915001B09151010E946C00909178
:1004F0004D01891749F080E291E00E94F301C09319
:100500004C0180914C01E1CF82E391E00E94F30124
:0A05100010924C01F6CFF894FFCFD3
:10051A00303132333435363738396162636465666F
:10052A00303132333435363738396162636465665F
:10053A00777269746520746F20656570726F6D0DCE
:10054A000A0073616D652076616C75652C20646F95
:0C055A00206E6F7468696E670D0A000067
:00000001FF
