:100000000C9434000C9449000C9449000C94490061
:100010000C9449000C9449000C9449000C9449003C
:100020000C9449000C9449000C9449000C9449002C
:100030000C9449000C9449000C9449000C9449001C
:100040000C9449000C9449000C9449000C9449000C
:100050000C9449000C9449000C9449000C944900FC
:100060000C9449000C94490011241FBECFEFD8E036
:10007000DEBFCDBF11E0A0E0B1E0E0EFF1E002C0F3
:1000800005900D92A032B107D9F70E94C5000C94DB
:10009000F6000C940000F999FECF92BD81BDF89A4C
:1000A00080B508951092C50088E08093C40088E16F
:1000B0008093C10086E08093C20008958091C000C3
:1000C00087FFFCCF8091C60008959091C00095FFF6
:1000D000FCCF8093C6000895CF93DF93EC01888115
:1000E000811103C0DF91CF91089521960E94650090
:1000F000F6CFCF93C82FE82FE295EF70F0E0E05FE6
:10010000FE4F80810E946500CF70EC2FF0E0E05F31
:10011000FE4F8081CF910C946500CF93DF9300D088
:1001200000D000D0CDB7DEB769837A838B839C8300
:1001300080E30E94650088E70E9465008CE18D8362
:100140001E8289819A81AB81BC810D8004C0B695E5
:10015000A795979587950A94D2F78F709927805025
:100160009F4FFC0180810E9465008D819E810497D4
:100170008D839E83049629F70F900F900F900F9018
:100180000F900F90DF91CF9108950E945200E12CC3
:10019000F12C67018C2D8F7090E0A0E0B0E0892BEE
:1001A0008A2B8B2B69F48DE00E9465008AE00E9407
:1001B0006500B601C7010E948D0080E20E946500C3
:1001C000C6010E944B000E94790080E20E946500F7
:1001D0008FEFC81AD80AE80AF80AC11484E0D806D2
:1001E000E104F104B9F680E090E00895F894FFCFBF
:1001F000303132333435363738396162636465669D
:10020000303132333435363738396162636465668C
:00000001FF
